{
  "_format": "hh-sol-artifact-1",
  "contractName": "VotingContract",
  "sourceName": "contracts/VotingContract.sol",
  "abi": [
    {
      "inputs": [],
      "stateMutability": "nonpayable",
      "type": "constructor"
    },
    {
      "anonymous": false,
      "inputs": [
        {
          "indexed": true,
          "internalType": "uint256",
          "name": "candidateId",
          "type": "uint256"
        },
        {
          "indexed": false,
          "internalType": "string",
          "name": "age",
          "type": "string"
        },
        {
          "indexed": false,
          "internalType": "string",
          "name": "name",
          "type": "string"
        },
        {
          "indexed": false,
          "internalType": "string",
          "name": "image",
          "type": "string"
        },
        {
          "indexed": false,
          "internalType": "uint256",
          "name": "voteCount",
          "type": "uint256"
        },
        {
          "indexed": false,
          "internalType": "address",
          "name": "_address",
          "type": "address"
        },
        {
          "indexed": false,
          "internalType": "string",
          "name": "ipfs",
          "type": "string"
        }
      ],
      "name": "CandidateCreate",
      "type": "event"
    },
    {
      "anonymous": false,
      "inputs": [
        {
          "indexed": true,
          "internalType": "uint256",
          "name": "voter_voterId",
          "type": "uint256"
        },
        {
          "indexed": false,
          "internalType": "string",
          "name": "voter_name",
          "type": "string"
        },
        {
          "indexed": false,
          "internalType": "string",
          "name": "voter_image",
          "type": "string"
        },
        {
          "indexed": false,
          "internalType": "address",
          "name": "voter_address",
          "type": "address"
        },
        {
          "indexed": false,
          "internalType": "uint256",
          "name": "voter_allowed",
          "type": "uint256"
        },
        {
          "indexed": false,
          "internalType": "bool",
          "name": "voter_voted",
          "type": "bool"
        },
        {
          "indexed": false,
          "internalType": "uint256",
          "name": "voter_vote",
          "type": "uint256"
        },
        {
          "indexed": false,
          "internalType": "string",
          "name": "voter_ipfs",
          "type": "string"
        }
      ],
      "name": "voterCreated",
      "type": "event"
    },
    {
      "inputs": [
        {
          "internalType": "address",
          "name": "_address",
          "type": "address"
        },
        {
          "internalType": "string",
          "name": "_name",
          "type": "string"
        },
        {
          "internalType": "string",
          "name": "_image",
          "type": "string"
        },
        {
          "internalType": "string",
          "name": "_ipfs",
          "type": "string"
        }
      ],
      "name": "VoterRight",
      "outputs": [],
      "stateMutability": "nonpayable",
      "type": "function"
    },
    {
      "inputs": [],
      "name": "VotingOrganizer",
      "outputs": [
        {
          "internalType": "address",
          "name": "",
          "type": "address"
        }
      ],
      "stateMutability": "view",
      "type": "function"
    },
    {
      "inputs": [],
      "name": "_candidateId",
      "outputs": [
        {
          "internalType": "contract Counter",
          "name": "",
          "type": "address"
        }
      ],
      "stateMutability": "view",
      "type": "function"
    },
    {
      "inputs": [],
      "name": "_voterId",
      "outputs": [
        {
          "internalType": "contract Counter",
          "name": "",
          "type": "address"
        }
      ],
      "stateMutability": "view",
      "type": "function"
    },
    {
      "inputs": [
        {
          "internalType": "uint256",
          "name": "",
          "type": "uint256"
        }
      ],
      "name": "candidateAddress",
      "outputs": [
        {
          "internalType": "address",
          "name": "",
          "type": "address"
        }
      ],
      "stateMutability": "view",
      "type": "function"
    },
    {
      "inputs": [
        {
          "internalType": "address",
          "name": "",
          "type": "address"
        }
      ],
      "name": "candidates",
      "outputs": [
        {
          "internalType": "uint256",
          "name": "candidateId",
          "type": "uint256"
        },
        {
          "internalType": "string",
          "name": "age",
          "type": "string"
        },
        {
          "internalType": "string",
          "name": "name",
          "type": "string"
        },
        {
          "internalType": "string",
          "name": "image",
          "type": "string"
        },
        {
          "internalType": "uint256",
          "name": "voteCount",
          "type": "uint256"
        },
        {
          "internalType": "address",
          "name": "_address",
          "type": "address"
        },
        {
          "internalType": "string",
          "name": "ipfs",
          "type": "string"
        }
      ],
      "stateMutability": "view",
      "type": "function"
    },
    {
      "inputs": [],
      "name": "getCandidate",
      "outputs": [
        {
          "internalType": "address[]",
          "name": "",
          "type": "address[]"
        }
      ],
      "stateMutability": "view",
      "type": "function"
    },
    {
      "inputs": [
        {
          "internalType": "address",
          "name": "_address",
          "type": "address"
        }
      ],
      "name": "getCandidateData",
      "outputs": [
        {
          "internalType": "string",
          "name": "",
          "type": "string"
        },
        {
          "internalType": "string",
          "name": "",
          "type": "string"
        },
        {
          "internalType": "uint256",
          "name": "",
          "type": "uint256"
        },
        {
          "internalType": "string",
          "name": "",
          "type": "string"
        },
        {
          "internalType": "uint256",
          "name": "",
          "type": "uint256"
        },
        {
          "internalType": "string",
          "name": "",
          "type": "string"
        },
        {
          "internalType": "address",
          "name": "",
          "type": "address"
        }
      ],
      "stateMutability": "view",
      "type": "function"
    },
    {
      "inputs": [],
      "name": "getCandidateLength",
      "outputs": [
        {
          "internalType": "uint256",
          "name": "",
          "type": "uint256"
        }
      ],
      "stateMutability": "view",
      "type": "function"
    },
    {
      "inputs": [],
      "name": "getVotedVoterList",
      "outputs": [
        {
          "internalType": "address[]",
          "name": "",
          "type": "address[]"
        }
      ],
      "stateMutability": "view",
      "type": "function"
    },
    {
      "inputs": [
        {
          "internalType": "address",
          "name": "_address",
          "type": "address"
        }
      ],
      "name": "getVoterData",
      "outputs": [
        {
          "internalType": "uint256",
          "name": "",
          "type": "uint256"
        },
        {
          "internalType": "string",
          "name": "",
          "type": "string"
        },
        {
          "internalType": "string",
          "name": "",
          "type": "string"
        },
        {
          "internalType": "address",
          "name": "",
          "type": "address"
        },
        {
          "internalType": "string",
          "name": "",
          "type": "string"
        },
        {
          "internalType": "bool",
          "name": "",
          "type": "bool"
        }
      ],
      "stateMutability": "view",
      "type": "function"
    },
    {
      "inputs": [],
      "name": "getVoterLength",
      "outputs": [
        {
          "internalType": "uint256",
          "name": "",
          "type": "uint256"
        }
      ],
      "stateMutability": "view",
      "type": "function"
    },
    {
      "inputs": [],
      "name": "getVoterList",
      "outputs": [
        {
          "internalType": "address[]",
          "name": "",
          "type": "address[]"
        }
      ],
      "stateMutability": "view",
      "type": "function"
    },
    {
      "inputs": [
        {
          "internalType": "address",
          "name": "_address",
          "type": "address"
        },
        {
          "internalType": "string",
          "name": "_age",
          "type": "string"
        },
        {
          "internalType": "string",
          "name": "_name",
          "type": "string"
        },
        {
          "internalType": "string",
          "name": "_image",
          "type": "string"
        },
        {
          "internalType": "string",
          "name": "_ipfs",
          "type": "string"
        }
      ],
      "name": "setCandidate",
      "outputs": [],
      "stateMutability": "nonpayable",
      "type": "function"
    },
    {
      "inputs": [
        {
          "internalType": "address",
          "name": "_candidateAddress",
          "type": "address"
        },
        {
          "internalType": "uint256",
          "name": "_candidateVoteId",
          "type": "uint256"
        }
      ],
      "name": "vote",
      "outputs": [],
      "stateMutability": "nonpayable",
      "type": "function"
    },
    {
      "inputs": [
        {
          "internalType": "uint256",
          "name": "",
          "type": "uint256"
        }
      ],
      "name": "votedVoters",
      "outputs": [
        {
          "internalType": "address",
          "name": "",
          "type": "address"
        }
      ],
      "stateMutability": "view",
      "type": "function"
    },
    {
      "inputs": [
        {
          "internalType": "address",
          "name": "",
          "type": "address"
        }
      ],
      "name": "voters",
      "outputs": [
        {
          "internalType": "uint256",
          "name": "voter_voterId",
          "type": "uint256"
        },
        {
          "internalType": "string",
          "name": "voter_name",
          "type": "string"
        },
        {
          "internalType": "string",
          "name": "voter_image",
          "type": "string"
        },
        {
          "internalType": "address",
          "name": "voter_address",
          "type": "address"
        },
        {
          "internalType": "uint256",
          "name": "voter_allowed",
          "type": "uint256"
        },
        {
          "internalType": "bool",
          "name": "voter_voted",
          "type": "bool"
        },
        {
          "internalType": "uint256",
          "name": "voter_vote",
          "type": "uint256"
        },
        {
          "internalType": "string",
          "name": "voter_ipfs",
          "type": "string"
        }
      ],
      "stateMutability": "view",
      "type": "function"
    },
    {
      "inputs": [
        {
          "internalType": "uint256",
          "name": "",
          "type": "uint256"
        }
      ],
      "name": "votersAddress",
      "outputs": [
        {
          "internalType": "address",
          "name": "",
          "type": "address"
        }
      ],
      "stateMutability": "view",
      "type": "function"
    }
  ],
  "bytecode": "0x608060405234801561001057600080fd5b5033600260006101000a81548173ffffffffffffffffffffffffffffffffffffffff021916908373ffffffffffffffffffffffffffffffffffffffff160217905550612b67806100616000396000f3fe608060405234801561001057600080fd5b50600436106101165760003560e01c80638ab66a90116100a2578063a738896711610071578063a738896714610333578063b28d92ae14610351578063b9be31521461036f578063c91ec7121461038d578063f7522a83146103a957610116565b80638ab66a90146102735780638e945685146102a95780638fb4cd80146102c7578063a3ec138d146102fc57610116565b80633a88251a116100e95780633a88251a146101a957806343242daa146101d95780635f74bbde1461020957806370218b85146102255780637831ffb31461024357610116565b806305ad45a41461011b5780632055270f146101395780632a466ac71461015557806338736d461461018b575b600080fd5b6101236103c7565b6040516101309190611bd3565b60405180910390f35b610153600480360381019061014e9190611da6565b6103d4565b005b61016f600480360381019061016a9190611e61565b61077f565b6040516101829796959493929190611f1c565b60405180910390f35b610193610bc6565b6040516101a09190611fa7565b60405180910390f35b6101c360048036038101906101be9190611fee565b610bec565b6040516101d09190611fa7565b60405180910390f35b6101f360048036038101906101ee9190611fee565b610c2b565b6040516102009190611fa7565b60405180910390f35b610223600480360381019061021e919061201b565b610c6a565b005b61022d610e31565b60405161023a9190612119565b60405180910390f35b61025d60048036038101906102589190611fee565b610ebf565b60405161026a9190611fa7565b60405180910390f35b61028d60048036038101906102889190611e61565b610efe565b6040516102a0979695949392919061213b565b60405180910390f35b6102b1611180565b6040516102be9190612119565b60405180910390f35b6102e160048036038101906102dc9190611e61565b61120e565b6040516102f3969594939291906121e1565b60405180910390f35b61031660048036038101906103119190611e61565b61158e565b60405161032a989796959493929190612257565b60405180910390f35b61033b61179b565b6040516103489190612349565b60405180910390f35b6103596117c1565b6040516103669190612119565b60405180910390f35b61037761184f565b6040516103849190612349565b60405180910390f35b6103a760048036038101906103a29190612364565b611873565b005b6103b1611bad565b6040516103be9190611bd3565b60405180910390f35b6000600680549050905090565b3373ffffffffffffffffffffffffffffffffffffffff16600260009054906101000a900473ffffffffffffffffffffffffffffffffffffffff1673ffffffffffffffffffffffffffffffffffffffff1614610464576040517f08c379a000000000000000000000000000000000000000000000000000000000815260040161045b9061249b565b60405180910390fd5b60008054906101000a900473ffffffffffffffffffffffffffffffffffffffff1673ffffffffffffffffffffffffffffffffffffffff1663d09de08a6040518163ffffffff1660e01b8152600401600060405180830381600087803b1580156104cc57600080fd5b505af11580156104e0573d6000803e3d6000fd5b505050506000600160009054906101000a900473ffffffffffffffffffffffffffffffffffffffff1673ffffffffffffffffffffffffffffffffffffffff16639fa6a6e36040518163ffffffff1660e01b8152600401602060405180830381865afa158015610553573d6000803e3d6000fd5b505050506040513d601f19601f8201168201806040525081019061057791906124d0565b90506000600760008773ffffffffffffffffffffffffffffffffffffffff1673ffffffffffffffffffffffffffffffffffffffff16815260200190815260200160002090506000816004015414610603576040517f08c379a00000000000000000000000000000000000000000000000000000000081526004016105fa90612549565b60405180910390fd5b600181600401819055508481600101908161061e919061276b565b5083816002019081610630919061276b565b50858160030160006101000a81548173ffffffffffffffffffffffffffffffffffffffff021916908373ffffffffffffffffffffffffffffffffffffffff1602179055508181600001819055506103e8816006018190555060008160050160006101000a81548160ff021916908315150217905550828160070190816106b6919061276b565b506006869080600181540180825580915050600190039060005260206000200160009091909190916101000a81548173ffffffffffffffffffffffffffffffffffffffff021916908373ffffffffffffffffffffffffffffffffffffffff160217905550817fa82760a4fb77b1af9728c15d96987c3f10b4f156d752048393e8518ae42a4a6e86868985600401548660050160009054906101000a900460ff1687600601548a60405161076f979695949392919061283d565b60405180910390a2505050505050565b60608060006060600060606000600460008973ffffffffffffffffffffffffffffffffffffffff1673ffffffffffffffffffffffffffffffffffffffff168152602001908152602001600020600101600460008a73ffffffffffffffffffffffffffffffffffffffff1673ffffffffffffffffffffffffffffffffffffffff168152602001908152602001600020600201600460008b73ffffffffffffffffffffffffffffffffffffffff1673ffffffffffffffffffffffffffffffffffffffff16815260200190815260200160002060000154600460008c73ffffffffffffffffffffffffffffffffffffffff1673ffffffffffffffffffffffffffffffffffffffff168152602001908152602001600020600301600460008d73ffffffffffffffffffffffffffffffffffffffff1673ffffffffffffffffffffffffffffffffffffffff16815260200190815260200160002060040154600460008e73ffffffffffffffffffffffffffffffffffffffff1673ffffffffffffffffffffffffffffffffffffffff168152602001908152602001600020600601600460008f73ffffffffffffffffffffffffffffffffffffffff1673ffffffffffffffffffffffffffffffffffffffff16815260200190815260200160002060050160009054906101000a900473ffffffffffffffffffffffffffffffffffffffff1686805461098990612598565b80601f01602080910402602001604051908101604052809291908181526020018280546109b590612598565b8015610a025780601f106109d757610100808354040283529160200191610a02565b820191906000526020600020905b8154815290600101906020018083116109e557829003601f168201915b50505050509650858054610a1590612598565b80601f0160208091040260200160405190810160405280929190818152602001828054610a4190612598565b8015610a8e5780601f10610a6357610100808354040283529160200191610a8e565b820191906000526020600020905b815481529060010190602001808311610a7157829003601f168201915b50505050509550838054610aa190612598565b80601f0160208091040260200160405190810160405280929190818152602001828054610acd90612598565b8015610b1a5780601f10610aef57610100808354040283529160200191610b1a565b820191906000526020600020905b815481529060010190602001808311610afd57829003601f168201915b50505050509350818054610b2d90612598565b80601f0160208091040260200160405190810160405280929190818152602001828054610b5990612598565b8015610ba65780601f10610b7b57610100808354040283529160200191610ba6565b820191906000526020600020905b815481529060010190602001808311610b8957829003601f168201915b505050505091509650965096509650965096509650919395979092949650565b600260009054906101000a900473ffffffffffffffffffffffffffffffffffffffff1681565b60038181548110610bfc57600080fd5b906000526020600020016000915054906101000a900473ffffffffffffffffffffffffffffffffffffffff1681565b60068181548110610c3b57600080fd5b906000526020600020016000915054906101000a900473ffffffffffffffffffffffffffffffffffffffff1681565b6000600760003373ffffffffffffffffffffffffffffffffffffffff1673ffffffffffffffffffffffffffffffffffffffff16815260200190815260200160002090508060050160009054906101000a900460ff1615610cff576040517f08c379a0000000000000000000000000000000000000000000000000000000008152600401610cf69061290d565b60405180910390fd5b6000816004015403610d46576040517f08c379a0000000000000000000000000000000000000000000000000000000008152600401610d3d9061299f565b60405180910390fd5b60018160050160006101000a81548160ff0219169083151502179055508181600601819055506005339080600181540180825580915050600190039060005260206000200160009091909190916101000a81548173ffffffffffffffffffffffffffffffffffffffff021916908373ffffffffffffffffffffffffffffffffffffffff1602179055508060040154600460008573ffffffffffffffffffffffffffffffffffffffff1673ffffffffffffffffffffffffffffffffffffffff1681526020019081526020016000206004016000828254610e2591906129ee565b92505081905550505050565b60606003805480602002602001604051908101604052809291908181526020018280548015610eb557602002820191906000526020600020905b8160009054906101000a900473ffffffffffffffffffffffffffffffffffffffff1673ffffffffffffffffffffffffffffffffffffffff1681526020019060010190808311610e6b575b5050505050905090565b60058181548110610ecf57600080fd5b906000526020600020016000915054906101000a900473ffffffffffffffffffffffffffffffffffffffff1681565b6004602052806000526040600020600091509050806000015490806001018054610f2790612598565b80601f0160208091040260200160405190810160405280929190818152602001828054610f5390612598565b8015610fa05780601f10610f7557610100808354040283529160200191610fa0565b820191906000526020600020905b815481529060010190602001808311610f8357829003601f168201915b505050505090806002018054610fb590612598565b80601f0160208091040260200160405190810160405280929190818152602001828054610fe190612598565b801561102e5780601f106110035761010080835404028352916020019161102e565b820191906000526020600020905b81548152906001019060200180831161101157829003601f168201915b50505050509080600301805461104390612598565b80601f016020809104026020016040519081016040528092919081815260200182805461106f90612598565b80156110bc5780601f10611091576101008083540402835291602001916110bc565b820191906000526020600020905b81548152906001019060200180831161109f57829003601f168201915b5050505050908060040154908060050160009054906101000a900473ffffffffffffffffffffffffffffffffffffffff16908060060180546110fd90612598565b80601f016020809104026020016040519081016040528092919081815260200182805461112990612598565b80156111765780601f1061114b57610100808354040283529160200191611176565b820191906000526020600020905b81548152906001019060200180831161115957829003601f168201915b5050505050905087565b6060600580548060200260200160405190810160405280929190818152602001828054801561120457602002820191906000526020600020905b8160009054906101000a900473ffffffffffffffffffffffffffffffffffffffff1673ffffffffffffffffffffffffffffffffffffffff16815260200190600101908083116111ba575b5050505050905090565b6000606080600060606000600760008873ffffffffffffffffffffffffffffffffffffffff1673ffffffffffffffffffffffffffffffffffffffff16815260200190815260200160002060000154600760008973ffffffffffffffffffffffffffffffffffffffff1673ffffffffffffffffffffffffffffffffffffffff168152602001908152602001600020600101600760008a73ffffffffffffffffffffffffffffffffffffffff1673ffffffffffffffffffffffffffffffffffffffff168152602001908152602001600020600201600760008b73ffffffffffffffffffffffffffffffffffffffff1673ffffffffffffffffffffffffffffffffffffffff16815260200190815260200160002060030160009054906101000a900473ffffffffffffffffffffffffffffffffffffffff16600760008c73ffffffffffffffffffffffffffffffffffffffff1673ffffffffffffffffffffffffffffffffffffffff168152602001908152602001600020600701600760008d73ffffffffffffffffffffffffffffffffffffffff1673ffffffffffffffffffffffffffffffffffffffff16815260200190815260200160002060050160009054906101000a900460ff168480546113e190612598565b80601f016020809104026020016040519081016040528092919081815260200182805461140d90612598565b801561145a5780601f1061142f5761010080835404028352916020019161145a565b820191906000526020600020905b81548152906001019060200180831161143d57829003601f168201915b5050505050945083805461146d90612598565b80601f016020809104026020016040519081016040528092919081815260200182805461149990612598565b80156114e65780601f106114bb576101008083540402835291602001916114e6565b820191906000526020600020905b8154815290600101906020018083116114c957829003601f168201915b505050505093508180546114f990612598565b80601f016020809104026020016040519081016040528092919081815260200182805461152590612598565b80156115725780601f1061154757610100808354040283529160200191611572565b820191906000526020600020905b81548152906001019060200180831161155557829003601f168201915b5050505050915095509550955095509550955091939550919395565b60076020528060005260406000206000915090508060000154908060010180546115b790612598565b80601f01602080910402602001604051908101604052809291908181526020018280546115e390612598565b80156116305780601f1061160557610100808354040283529160200191611630565b820191906000526020600020905b81548152906001019060200180831161161357829003601f168201915b50505050509080600201805461164590612598565b80601f016020809104026020016040519081016040528092919081815260200182805461167190612598565b80156116be5780601f10611693576101008083540402835291602001916116be565b820191906000526020600020905b8154815290600101906020018083116116a157829003601f168201915b5050505050908060030160009054906101000a900473ffffffffffffffffffffffffffffffffffffffff16908060040154908060050160009054906101000a900460ff169080600601549080600701805461171890612598565b80601f016020809104026020016040519081016040528092919081815260200182805461174490612598565b80156117915780601f1061176657610100808354040283529160200191611791565b820191906000526020600020905b81548152906001019060200180831161177457829003601f168201915b5050505050905088565b600160009054906101000a900473ffffffffffffffffffffffffffffffffffffffff1681565b6060600680548060200260200160405190810160405280929190818152602001828054801561184557602002820191906000526020600020905b8160009054906101000a900473ffffffffffffffffffffffffffffffffffffffff1673ffffffffffffffffffffffffffffffffffffffff16815260200190600101908083116117fb575b5050505050905090565b60008054906101000a900473ffffffffffffffffffffffffffffffffffffffff1681565b3373ffffffffffffffffffffffffffffffffffffffff16600260009054906101000a900473ffffffffffffffffffffffffffffffffffffffff1673ffffffffffffffffffffffffffffffffffffffff1614611903576040517f08c379a00000000000000000000000000000000000000000000000000000000081526004016118fa90612a94565b60405180910390fd5b600160009054906101000a900473ffffffffffffffffffffffffffffffffffffffff1673ffffffffffffffffffffffffffffffffffffffff1663d09de08a6040518163ffffffff1660e01b8152600401600060405180830381600087803b15801561196d57600080fd5b505af1158015611981573d6000803e3d6000fd5b505050506000600160009054906101000a900473ffffffffffffffffffffffffffffffffffffffff1673ffffffffffffffffffffffffffffffffffffffff16639fa6a6e36040518163ffffffff1660e01b8152600401602060405180830381865afa1580156119f4573d6000803e3d6000fd5b505050506040513d601f19601f82011682018060405250810190611a1891906124d0565b90506000600460008873ffffffffffffffffffffffffffffffffffffffff1673ffffffffffffffffffffffffffffffffffffffff168152602001908152602001600020905085816001019081611a6e919061276b565b5084816002019081611a80919061276b565b5081816000018190555083816003019081611a9b919061276b565b5060008160040181905550868160050160006101000a81548173ffffffffffffffffffffffffffffffffffffffff021916908373ffffffffffffffffffffffffffffffffffffffff16021790555082816006019081611afa919061276b565b506003879080600181540180825580915050600190039060005260206000200160009091909190916101000a81548173ffffffffffffffffffffffffffffffffffffffff021916908373ffffffffffffffffffffffffffffffffffffffff160217905550817fd297f12b256bb8485a6013fb5e302017018123e99a0ebb20756c09e1707b4b9087878785600401548c89604051611b9c96959493929190612ab4565b60405180910390a250505050505050565b6000600380549050905090565b6000819050919050565b611bcd81611bba565b82525050565b6000602082019050611be86000830184611bc4565b92915050565b6000604051905090565b600080fd5b600080fd5b600073ffffffffffffffffffffffffffffffffffffffff82169050919050565b6000611c2d82611c02565b9050919050565b611c3d81611c22565b8114611c4857600080fd5b50565b600081359050611c5a81611c34565b92915050565b600080fd5b600080fd5b6000601f19601f8301169050919050565b7f4e487b7100000000000000000000000000000000000000000000000000000000600052604160045260246000fd5b611cb382611c6a565b810181811067ffffffffffffffff82111715611cd257611cd1611c7b565b5b80604052505050565b6000611ce5611bee565b9050611cf18282611caa565b919050565b600067ffffffffffffffff821115611d1157611d10611c7b565b5b611d1a82611c6a565b9050602081019050919050565b82818337600083830152505050565b6000611d49611d4484611cf6565b611cdb565b905082815260208101848484011115611d6557611d64611c65565b5b611d70848285611d27565b509392505050565b600082601f830112611d8d57611d8c611c60565b5b8135611d9d848260208601611d36565b91505092915050565b60008060008060808587031215611dc057611dbf611bf8565b5b6000611dce87828801611c4b565b945050602085013567ffffffffffffffff811115611def57611dee611bfd565b5b611dfb87828801611d78565b935050604085013567ffffffffffffffff811115611e1c57611e1b611bfd565b5b611e2887828801611d78565b925050606085013567ffffffffffffffff811115611e4957611e48611bfd565b5b611e5587828801611d78565b91505092959194509250565b600060208284031215611e7757611e76611bf8565b5b6000611e8584828501611c4b565b91505092915050565b600081519050919050565b600082825260208201905092915050565b60005b83811015611ec8578082015181840152602081019050611ead565b60008484015250505050565b6000611edf82611e8e565b611ee98185611e99565b9350611ef9818560208601611eaa565b611f0281611c6a565b840191505092915050565b611f1681611c22565b82525050565b600060e0820190508181036000830152611f36818a611ed4565b90508181036020830152611f4a8189611ed4565b9050611f596040830188611bc4565b8181036060830152611f6b8187611ed4565b9050611f7a6080830186611bc4565b81810360a0830152611f8c8185611ed4565b9050611f9b60c0830184611f0d565b98975050505050505050565b6000602082019050611fbc6000830184611f0d565b92915050565b611fcb81611bba565b8114611fd657600080fd5b50565b600081359050611fe881611fc2565b92915050565b60006020828403121561200457612003611bf8565b5b600061201284828501611fd9565b91505092915050565b6000806040838503121561203257612031611bf8565b5b600061204085828601611c4b565b925050602061205185828601611fd9565b9150509250929050565b600081519050919050565b600082825260208201905092915050565b6000819050602082019050919050565b61209081611c22565b82525050565b60006120a28383612087565b60208301905092915050565b6000602082019050919050565b60006120c68261205b565b6120d08185612066565b93506120db83612077565b8060005b8381101561210c5781516120f38882612096565b97506120fe836120ae565b9250506001810190506120df565b5085935050505092915050565b6000602082019050818103600083015261213381846120bb565b905092915050565b600060e082019050612150600083018a611bc4565b81810360208301526121628189611ed4565b905081810360408301526121768188611ed4565b9050818103606083015261218a8187611ed4565b90506121996080830186611bc4565b6121a660a0830185611f0d565b81810360c08301526121b88184611ed4565b905098975050505050505050565b60008115159050919050565b6121db816121c6565b82525050565b600060c0820190506121f66000830189611bc4565b81810360208301526122088188611ed4565b9050818103604083015261221c8187611ed4565b905061222b6060830186611f0d565b818103608083015261223d8185611ed4565b905061224c60a08301846121d2565b979650505050505050565b60006101008201905061226d600083018b611bc4565b818103602083015261227f818a611ed4565b905081810360408301526122938189611ed4565b90506122a26060830188611f0d565b6122af6080830187611bc4565b6122bc60a08301866121d2565b6122c960c0830185611bc4565b81810360e08301526122db8184611ed4565b90509998505050505050505050565b6000819050919050565b600061230f61230a61230584611c02565b6122ea565b611c02565b9050919050565b6000612321826122f4565b9050919050565b600061233382612316565b9050919050565b61234381612328565b82525050565b600060208201905061235e600083018461233a565b92915050565b600080600080600060a086880312156123805761237f611bf8565b5b600061238e88828901611c4b565b955050602086013567ffffffffffffffff8111156123af576123ae611bfd565b5b6123bb88828901611d78565b945050604086013567ffffffffffffffff8111156123dc576123db611bfd565b5b6123e888828901611d78565b935050606086013567ffffffffffffffff81111561240957612408611bfd565b5b61241588828901611d78565b925050608086013567ffffffffffffffff81111561243657612435611bfd565b5b61244288828901611d78565b9150509295509295909350565b7f4f6e6c79206f7267616e697a65722063616e2063726561746520766f74657200600082015250565b6000612485601f83611e99565b91506124908261244f565b602082019050919050565b600060208201905081810360008301526124b481612478565b9050919050565b6000815190506124ca81611fc2565b92915050565b6000602082840312156124e6576124e5611bf8565b5b60006124f4848285016124bb565b91505092915050565b7f566f74657220616c726561647920616c6c6f7765640000000000000000000000600082015250565b6000612533601583611e99565b915061253e826124fd565b602082019050919050565b6000602082019050818103600083015261256281612526565b9050919050565b7f4e487b7100000000000000000000000000000000000000000000000000000000600052602260045260246000fd5b600060028204905060018216806125b057607f821691505b6020821081036125c3576125c2612569565b5b50919050565b60008190508160005260206000209050919050565b60006020601f8301049050919050565b600082821b905092915050565b60006008830261262b7fffffffffffffffffffffffffffffffffffffffffffffffffffffffffffffffff826125ee565b61263586836125ee565b95508019841693508086168417925050509392505050565b600061266861266361265e84611bba565b6122ea565b611bba565b9050919050565b6000819050919050565b6126828361264d565b61269661268e8261266f565b8484546125fb565b825550505050565b600090565b6126ab61269e565b6126b6818484612679565b505050565b5b818110156126da576126cf6000826126a3565b6001810190506126bc565b5050565b601f82111561271f576126f0816125c9565b6126f9846125de565b81016020851015612708578190505b61271c612714856125de565b8301826126bb565b50505b505050565b600082821c905092915050565b600061274260001984600802612724565b1980831691505092915050565b600061275b8383612731565b9150826002028217905092915050565b61277482611e8e565b67ffffffffffffffff81111561278d5761278c611c7b565b5b6127978254612598565b6127a28282856126de565b600060209050601f8311600181146127d557600084156127c3578287015190505b6127cd858261274f565b865550612835565b601f1984166127e3866125c9565b60005b8281101561280b578489015182556001820191506020850194506020810190506127e6565b868310156128285784890151612824601f891682612731565b8355505b6001600288020188555050505b505050505050565b600060e0820190508181036000830152612857818a611ed4565b9050818103602083015261286b8189611ed4565b905061287a6040830188611f0d565b6128876060830187611bc4565b61289460808301866121d2565b6128a160a0830185611bc4565b81810360c08301526128b38184611ed4565b905098975050505050505050565b7f796f75206861766520616c726561647920766f74656400000000000000000000600082015250565b60006128f7601683611e99565b9150612902826128c1565b602082019050919050565b60006020820190508181036000830152612926816128ea565b9050919050565b7f796f7520617265206e6f742077686974656c69737465642c20736f20796f752060008201527f617265206e6f7420616c6c6f776420746f20766f746500000000000000000000602082015250565b6000612989603683611e99565b91506129948261292d565b604082019050919050565b600060208201905081810360008301526129b88161297c565b9050919050565b7f4e487b7100000000000000000000000000000000000000000000000000000000600052601160045260246000fd5b60006129f982611bba565b9150612a0483611bba565b9250828201905080821115612a1c57612a1b6129bf565b5b92915050565b7f4f6e6c79204f7267616e697a65722063616e206372656174652074686520636160008201527f6e64696461746573000000000000000000000000000000000000000000000000602082015250565b6000612a7e602883611e99565b9150612a8982612a22565b604082019050919050565b60006020820190508181036000830152612aad81612a71565b9050919050565b600060c0820190508181036000830152612ace8189611ed4565b90508181036020830152612ae28188611ed4565b90508181036040830152612af68187611ed4565b9050612b056060830186611bc4565b612b126080830185611f0d565b81810360a0830152612b248184611ed4565b905097965050505050505056fea26469706673582212200667f655f662e0f99318a6a463cb4a163fb97da161428dea5356666a2e2bac6d64736f6c63430008180033",
  "linkReferences": {},
  "deployedLinkReferences": {}
}