{
  "_format": "hh-sol-artifact-1",
  "contractName": "VoteContract",
  "sourceName": "contracts/VoteContract.sol",
  "abi": [
    {
      "inputs": [],
      "stateMutability": "nonpayable",
      "type": "constructor"
    },
    {
      "inputs": [
        {
          "internalType": "string",
          "name": "name",
          "type": "string"
        }
      ],
      "name": "addCandidate",
      "outputs": [],
      "stateMutability": "nonpayable",
      "type": "function"
    },
    {
      "inputs": [
        {
          "internalType": "address",
          "name": "_address",
          "type": "address"
        }
      ],
      "name": "addToWhitelist",
      "outputs": [],
      "stateMutability": "nonpayable",
      "type": "function"
    },
    {
      "inputs": [],
      "name": "getCandidateCount",
      "outputs": [
        {
          "internalType": "uint256",
          "name": "",
          "type": "uint256"
        }
      ],
      "stateMutability": "view",
      "type": "function"
    },
    {
      "inputs": [],
      "name": "getCandidateData",
      "outputs": [
        {
          "internalType": "string[]",
          "name": "",
          "type": "string[]"
        }
      ],
      "stateMutability": "view",
      "type": "function"
    },
    {
      "inputs": [],
      "name": "getResult",
      "outputs": [
        {
          "internalType": "uint256[]",
          "name": "",
          "type": "uint256[]"
        }
      ],
      "stateMutability": "view",
      "type": "function"
    },
    {
      "inputs": [],
      "name": "hasVoted",
      "outputs": [
        {
          "internalType": "bool",
          "name": "",
          "type": "bool"
        }
      ],
      "stateMutability": "view",
      "type": "function"
    },
    {
      "inputs": [],
      "name": "isOwner",
      "outputs": [
        {
          "internalType": "bool",
          "name": "",
          "type": "bool"
        }
      ],
      "stateMutability": "view",
      "type": "function"
    },
    {
      "inputs": [],
      "name": "isVotingEnabled",
      "outputs": [
        {
          "internalType": "bool",
          "name": "",
          "type": "bool"
        }
      ],
      "stateMutability": "view",
      "type": "function"
    },
    {
      "inputs": [
        {
          "internalType": "address",
          "name": "_address",
          "type": "address"
        }
      ],
      "name": "isWhitelisted",
      "outputs": [
        {
          "internalType": "bool",
          "name": "",
          "type": "bool"
        }
      ],
      "stateMutability": "view",
      "type": "function"
    },
    {
      "inputs": [
        {
          "internalType": "address",
          "name": "_address",
          "type": "address"
        }
      ],
      "name": "removeFromWhitelist",
      "outputs": [],
      "stateMutability": "nonpayable",
      "type": "function"
    },
    {
      "inputs": [],
      "name": "toggleVotingEnabled",
      "outputs": [],
      "stateMutability": "nonpayable",
      "type": "function"
    },
    {
      "inputs": [
        {
          "internalType": "uint256",
          "name": "index",
          "type": "uint256"
        }
      ],
      "name": "vote",
      "outputs": [],
      "stateMutability": "nonpayable",
      "type": "function"
    }
  ],
  "bytecode": "0x608060405234801561001057600080fd5b50336000806101000a81548173ffffffffffffffffffffffffffffffffffffffff021916908373ffffffffffffffffffffffffffffffffffffffff1602179055506001600460008060009054906101000a900473ffffffffffffffffffffffffffffffffffffffff1673ffffffffffffffffffffffffffffffffffffffff1673ffffffffffffffffffffffffffffffffffffffff16815260200190815260200160002060006101000a81548160ff02191690831515021790555061166f806100d96000396000f3fe608060405234801561001057600080fd5b50600436106100b45760003560e01c806350a4ca1b1161007157806350a4ca1b1461016757806364821338146101855780638ab1d681146101a35780638f32d59b146101bf578063de292789146101dd578063e43252d7146101fb576100b4565b80630121b93f146100b957806308405853146100d557806330a56347146100df5780633af32abf146100fd57806341ecf7001461012d578063462e91ec1461014b575b600080fd5b6100d360048036038101906100ce9190610b44565b610217565b005b6100dd610464565b005b6100e761051e565b6040516100f49190610b80565b60405180910390f35b61011760048036038101906101129190610bf9565b610528565b6040516101249190610c41565b60405180910390f35b61013561057e565b6040516101429190610c41565b60405180910390f35b61016560048036038101906101609190610da2565b610594565b005b61016f61067b565b60405161017c9190610f2c565b60405180910390f35b61018d6107c2565b60405161019a9190610c41565b60405180910390f35b6101bd60048036038101906101b89190610bf9565b610816565b005b6101c76108ff565b6040516101d49190610c41565b60405180910390f35b6101e5610956565b6040516101f2919061100c565b60405180910390f35b61021560048036038101906102109190610bf9565b610a11565b005b600060149054906101000a900460ff16610266576040517f08c379a000000000000000000000000000000000000000000000000000000000815260040161025d9061108b565b60405180910390fd5b6000600360008381526020019081526020016000208054610286906110da565b9050116102c8576040517f08c379a00000000000000000000000000000000000000000000000000000000081526004016102bf90611157565b60405180910390fd5b600460003373ffffffffffffffffffffffffffffffffffffffff1673ffffffffffffffffffffffffffffffffffffffff16815260200190815260200160002060009054906101000a900460ff16610354576040517f08c379a000000000000000000000000000000000000000000000000000000000815260040161034b906111c3565b60405180910390fd5b600160003373ffffffffffffffffffffffffffffffffffffffff1673ffffffffffffffffffffffffffffffffffffffff16815260200190815260200160002060009054906101000a900460ff16156103e1576040517f08c379a00000000000000000000000000000000000000000000000000000000081526004016103d89061122f565b60405180910390fd5b6002600082815260200190815260200160002060008154809291906104059061127e565b919050555060018060003373ffffffffffffffffffffffffffffffffffffffff1673ffffffffffffffffffffffffffffffffffffffff16815260200190815260200160002060006101000a81548160ff02191690831515021790555050565b60008054906101000a900473ffffffffffffffffffffffffffffffffffffffff1673ffffffffffffffffffffffffffffffffffffffff163373ffffffffffffffffffffffffffffffffffffffff16146104f2576040517f08c379a00000000000000000000000000000000000000000000000000000000081526004016104e990611338565b60405180910390fd5b600060149054906101000a900460ff1615600060146101000a81548160ff021916908315150217905550565b6000600554905090565b6000600460008373ffffffffffffffffffffffffffffffffffffffff1673ffffffffffffffffffffffffffffffffffffffff16815260200190815260200160002060009054906101000a900460ff169050919050565b60008060149054906101000a900460ff16905090565b60008054906101000a900473ffffffffffffffffffffffffffffffffffffffff1673ffffffffffffffffffffffffffffffffffffffff163373ffffffffffffffffffffffffffffffffffffffff1614610622576040517f08c379a000000000000000000000000000000000000000000000000000000000815260040161061990611338565b60405180910390fd5b600560008154809291906106359061127e565b919050555080600360006005548152602001908152602001600020908161065c9190611504565b5060006002600060055481526020019081526020016000208190555050565b60606000600160055461068e91906115d6565b67ffffffffffffffff8111156106a7576106a6610c77565b5b6040519080825280602002602001820160405280156106da57816020015b60608152602001906001900390816106c55790505b5090506000600190505b60055481116107ba5760036000828152602001908152602001600020805461070b906110da565b80601f0160208091040260200160405190810160405280929190818152602001828054610737906110da565b80156107845780601f1061075957610100808354040283529160200191610784565b820191906000526020600020905b81548152906001019060200180831161076757829003601f168201915b505050505082828151811061079c5761079b61160a565b5b602002602001018190525080806107b29061127e565b9150506106e4565b508091505090565b6000600160003373ffffffffffffffffffffffffffffffffffffffff1673ffffffffffffffffffffffffffffffffffffffff16815260200190815260200160002060009054906101000a900460ff16905090565b60008054906101000a900473ffffffffffffffffffffffffffffffffffffffff1673ffffffffffffffffffffffffffffffffffffffff163373ffffffffffffffffffffffffffffffffffffffff16146108a4576040517f08c379a000000000000000000000000000000000000000000000000000000000815260040161089b90611338565b60405180910390fd5b6000600460008373ffffffffffffffffffffffffffffffffffffffff1673ffffffffffffffffffffffffffffffffffffffff16815260200190815260200160002060006101000a81548160ff02191690831515021790555050565b60008060009054906101000a900473ffffffffffffffffffffffffffffffffffffffff1673ffffffffffffffffffffffffffffffffffffffff163373ffffffffffffffffffffffffffffffffffffffff1614905090565b60606000600160055461096991906115d6565b67ffffffffffffffff81111561098257610981610c77565b5b6040519080825280602002602001820160405280156109b05781602001602082028036833780820191505090505b5090506000600190505b6005548111610a095760026000828152602001908152602001600020548282815181106109ea576109e961160a565b5b6020026020010181815250508080610a019061127e565b9150506109ba565b508091505090565b60008054906101000a900473ffffffffffffffffffffffffffffffffffffffff1673ffffffffffffffffffffffffffffffffffffffff163373ffffffffffffffffffffffffffffffffffffffff1614610a9f576040517f08c379a0000000000000000000000000000000000000000000000000000000008152600401610a9690611338565b60405180910390fd5b6001600460008373ffffffffffffffffffffffffffffffffffffffff1673ffffffffffffffffffffffffffffffffffffffff16815260200190815260200160002060006101000a81548160ff02191690831515021790555050565b6000604051905090565b600080fd5b600080fd5b6000819050919050565b610b2181610b0e565b8114610b2c57600080fd5b50565b600081359050610b3e81610b18565b92915050565b600060208284031215610b5a57610b59610b04565b5b6000610b6884828501610b2f565b91505092915050565b610b7a81610b0e565b82525050565b6000602082019050610b956000830184610b71565b92915050565b600073ffffffffffffffffffffffffffffffffffffffff82169050919050565b6000610bc682610b9b565b9050919050565b610bd681610bbb565b8114610be157600080fd5b50565b600081359050610bf381610bcd565b92915050565b600060208284031215610c0f57610c0e610b04565b5b6000610c1d84828501610be4565b91505092915050565b60008115159050919050565b610c3b81610c26565b82525050565b6000602082019050610c566000830184610c32565b92915050565b600080fd5b600080fd5b6000601f19601f8301169050919050565b7f4e487b7100000000000000000000000000000000000000000000000000000000600052604160045260246000fd5b610caf82610c66565b810181811067ffffffffffffffff82111715610cce57610ccd610c77565b5b80604052505050565b6000610ce1610afa565b9050610ced8282610ca6565b919050565b600067ffffffffffffffff821115610d0d57610d0c610c77565b5b610d1682610c66565b9050602081019050919050565b82818337600083830152505050565b6000610d45610d4084610cf2565b610cd7565b905082815260208101848484011115610d6157610d60610c61565b5b610d6c848285610d23565b509392505050565b600082601f830112610d8957610d88610c5c565b5b8135610d99848260208601610d32565b91505092915050565b600060208284031215610db857610db7610b04565b5b600082013567ffffffffffffffff811115610dd657610dd5610b09565b5b610de284828501610d74565b91505092915050565b600081519050919050565b600082825260208201905092915050565b6000819050602082019050919050565b600081519050919050565b600082825260208201905092915050565b60005b83811015610e51578082015181840152602081019050610e36565b60008484015250505050565b6000610e6882610e17565b610e728185610e22565b9350610e82818560208601610e33565b610e8b81610c66565b840191505092915050565b6000610ea28383610e5d565b905092915050565b6000602082019050919050565b6000610ec282610deb565b610ecc8185610df6565b935083602082028501610ede85610e07565b8060005b85811015610f1a5784840389528151610efb8582610e96565b9450610f0683610eaa565b925060208a01995050600181019050610ee2565b50829750879550505050505092915050565b60006020820190508181036000830152610f468184610eb7565b905092915050565b600081519050919050565b600082825260208201905092915050565b6000819050602082019050919050565b610f8381610b0e565b82525050565b6000610f958383610f7a565b60208301905092915050565b6000602082019050919050565b6000610fb982610f4e565b610fc38185610f59565b9350610fce83610f6a565b8060005b83811015610fff578151610fe68882610f89565b9750610ff183610fa1565b925050600181019050610fd2565b5085935050505092915050565b600060208201905081810360008301526110268184610fae565b905092915050565b600082825260208201905092915050565b7f566f74696e67206973206e6f7420656e61626c65642100000000000000000000600082015250565b600061107560168361102e565b91506110808261103f565b602082019050919050565b600060208201905081810360008301526110a481611068565b9050919050565b7f4e487b7100000000000000000000000000000000000000000000000000000000600052602260045260246000fd5b600060028204905060018216806110f257607f821691505b602082108103611105576111046110ab565b5b50919050565b7f43616e646964617465204e6f7420466f756e6400000000000000000000000000600082015250565b600061114160138361102e565b915061114c8261110b565b602082019050919050565b6000602082019050818103600083015261117081611134565b9050919050565b7f596f7520617265206e6f7420616c6c6f77656420746f20766f74650000000000600082015250565b60006111ad601b8361102e565b91506111b882611177565b602082019050919050565b600060208201905081810360008301526111dc816111a0565b9050919050565b7f596f75206861766520616c726561647920766f74656400000000000000000000600082015250565b600061121960168361102e565b9150611224826111e3565b602082019050919050565b600060208201905081810360008301526112488161120c565b9050919050565b7f4e487b7100000000000000000000000000000000000000000000000000000000600052601160045260246000fd5b600061128982610b0e565b91507fffffffffffffffffffffffffffffffffffffffffffffffffffffffffffffffff82036112bb576112ba61124f565b5b600182019050919050565b7f4163636573732044656e696564203a206f6e6c79206f776e65722063616e206160008201527f636365737320746869732066756e6374696f6e21000000000000000000000000602082015250565b600061132260348361102e565b915061132d826112c6565b604082019050919050565b6000602082019050818103600083015261135181611315565b9050919050565b60008190508160005260206000209050919050565b60006020601f8301049050919050565b600082821b905092915050565b6000600883026113ba7fffffffffffffffffffffffffffffffffffffffffffffffffffffffffffffffff8261137d565b6113c4868361137d565b95508019841693508086168417925050509392505050565b6000819050919050565b60006114016113fc6113f784610b0e565b6113dc565b610b0e565b9050919050565b6000819050919050565b61141b836113e6565b61142f61142782611408565b84845461138a565b825550505050565b600090565b611444611437565b61144f818484611412565b505050565b5b818110156114735761146860008261143c565b600181019050611455565b5050565b601f8211156114b85761148981611358565b6114928461136d565b810160208510156114a1578190505b6114b56114ad8561136d565b830182611454565b50505b505050565b600082821c905092915050565b60006114db600019846008026114bd565b1980831691505092915050565b60006114f483836114ca565b9150826002028217905092915050565b61150d82610e17565b67ffffffffffffffff81111561152657611525610c77565b5b61153082546110da565b61153b828285611477565b600060209050601f83116001811461156e576000841561155c578287015190505b61156685826114e8565b8655506115ce565b601f19841661157c86611358565b60005b828110156115a45784890151825560018201915060208501945060208101905061157f565b868310156115c157848901516115bd601f8916826114ca565b8355505b6001600288020188555050505b505050505050565b60006115e182610b0e565b91506115ec83610b0e565b92508282019050808211156116045761160361124f565b5b92915050565b7f4e487b7100000000000000000000000000000000000000000000000000000000600052603260045260246000fdfea2646970667358221220b0a49a4c61a54c09ac23a4e93fd48aa0198925ca272e4d554d0e69f822fe157064736f6c63430008110033",
  "linkReferences": {},
  "deployedLinkReferences": {}
}